{
  "abi": [
    {
      "inputs": [
        {
          "internalType": "string",
          "name": "name_",
          "type": "string"
        },
        {
          "internalType": "string",
          "name": "symbol_",
          "type": "string"
        }
      ],
      "stateMutability": "nonpayable",
      "type": "constructor"
    },
    {
      "anonymous": false,
      "inputs": [
        {
          "indexed": true,
          "internalType": "address",
          "name": "previousOwner",
          "type": "address"
        },
        {
          "indexed": true,
          "internalType": "address",
          "name": "newOwner",
          "type": "address"
        }
      ],
      "name": "OwnershipTransferred",
      "type": "event"
    },
    {
      "anonymous": false,
      "inputs": [
        {
          "indexed": true,
          "internalType": "address",
          "name": "from",
          "type": "address"
        },
        {
          "indexed": true,
          "internalType": "address",
          "name": "to",
          "type": "address"
        },
        {
          "indexed": true,
          "internalType": "uint256",
          "name": "tokenId",
          "type": "uint256"
        }
      ],
      "name": "Transfer",
      "type": "event"
    },
    {
      "inputs": [
        {
          "internalType": "address",
          "name": "owner",
          "type": "address"
        }
      ],
      "name": "balanceOf",
      "outputs": [
        {
          "internalType": "uint256",
          "name": "",
          "type": "uint256"
        }
      ],
      "stateMutability": "view",
      "type": "function"
    },
    {
      "inputs": [
        {
          "internalType": "uint256",
          "name": "tokenId_",
          "type": "uint256"
        }
      ],
      "name": "burn",
      "outputs": [],
      "stateMutability": "nonpayable",
      "type": "function"
    },
    {
      "inputs": [
        {
          "internalType": "address",
          "name": "to",
          "type": "address"
        },
        {
          "internalType": "string",
          "name": "uri",
          "type": "string"
        },
        {
          "internalType": "bytes",
          "name": "signature",
          "type": "bytes"
        }
      ],
      "name": "give",
      "outputs": [
        {
          "internalType": "uint256",
          "name": "",
          "type": "uint256"
        }
      ],
      "stateMutability": "nonpayable",
      "type": "function"
    },
    {
      "inputs": [],
      "name": "index",
      "outputs": [
        {
          "internalType": "uint256",
          "name": "",
          "type": "uint256"
        }
      ],
      "stateMutability": "view",
      "type": "function"
    },
    {
      "inputs": [
        {
          "internalType": "address",
          "name": "beneficiary_",
          "type": "address"
        },
        {
          "internalType": "string",
          "name": "uri_",
          "type": "string"
        }
      ],
      "name": "mint",
      "outputs": [],
      "stateMutability": "nonpayable",
      "type": "function"
    },
    {
      "inputs": [],
      "name": "name",
      "outputs": [
        {
          "internalType": "string",
          "name": "",
          "type": "string"
        }
      ],
      "stateMutability": "view",
      "type": "function"
    },
    {
      "inputs": [],
      "name": "owner",
      "outputs": [
        {
          "internalType": "address",
          "name": "",
          "type": "address"
        }
      ],
      "stateMutability": "view",
      "type": "function"
    },
    {
      "inputs": [
        {
          "internalType": "uint256",
          "name": "tokenId",
          "type": "uint256"
        }
      ],
      "name": "ownerOf",
      "outputs": [
        {
          "internalType": "address",
          "name": "",
          "type": "address"
        }
      ],
      "stateMutability": "view",
      "type": "function"
    },
    {
      "inputs": [],
      "name": "renounceOwnership",
      "outputs": [],
      "stateMutability": "nonpayable",
      "type": "function"
    },
    {
      "inputs": [
        {
          "internalType": "bytes4",
          "name": "interfaceId",
          "type": "bytes4"
        }
      ],
      "name": "supportsInterface",
      "outputs": [
        {
          "internalType": "bool",
          "name": "",
          "type": "bool"
        }
      ],
      "stateMutability": "view",
      "type": "function"
    },
    {
      "inputs": [],
      "name": "symbol",
      "outputs": [
        {
          "internalType": "string",
          "name": "",
          "type": "string"
        }
      ],
      "stateMutability": "view",
      "type": "function"
    },
    {
      "inputs": [
        {
          "internalType": "address",
          "name": "from",
          "type": "address"
        },
        {
          "internalType": "string",
          "name": "uri",
          "type": "string"
        },
        {
          "internalType": "bytes",
          "name": "signature",
          "type": "bytes"
        }
      ],
      "name": "take",
      "outputs": [
        {
          "internalType": "uint256",
          "name": "",
          "type": "uint256"
        }
      ],
      "stateMutability": "nonpayable",
      "type": "function"
    },
    {
      "inputs": [
        {
          "internalType": "uint256",
          "name": "tokenId",
          "type": "uint256"
        }
      ],
      "name": "tokenURI",
      "outputs": [
        {
          "internalType": "string",
          "name": "",
          "type": "string"
        }
      ],
      "stateMutability": "view",
      "type": "function"
    },
    {
      "inputs": [
        {
          "internalType": "address",
          "name": "newOwner",
          "type": "address"
        }
      ],
      "name": "transferOwnership",
      "outputs": [],
      "stateMutability": "nonpayable",
      "type": "function"
    },
    {
      "inputs": [
        {
          "internalType": "uint256",
          "name": "tokenId",
          "type": "uint256"
        }
      ],
      "name": "unequip",
      "outputs": [],
      "stateMutability": "nonpayable",
      "type": "function"
    }
  ],
  "bytecode": {
    "object": "0x61014060405260006008553480156200001757600080fd5b5060405162001a2338038062001a238339810160408190526200003a916200026b565b6040805180820182526001808252603160f81b60208084019190915285518682012060e08190527fc89efdaa54c0f20c7adf612882df0950f5a951637e0307cdcb4c672f298b8bc66101008190524660a081815287517f8b73c3c69bb8fe3d512ecc4cf759cc79239f7b179b0ffacaa9a75d522b39400f818701819052818a01959095526060810193909352608080840192909252308382018190528851808503909201825260c093840190985280519401939093209092529390526101209290925283918391906200010e848262000364565b5060026200011d838262000364565b505050506200013b620001356200014860201b60201c565b6200014c565b5050600160075562000430565b3390565b600680546001600160a01b038381166001600160a01b0319831681179093556040519116919082907f8be0079c531659141344cd1fd0a4f28419497f9722a3daafe3b4186f6b6457e090600090a35050565b634e487b7160e01b600052604160045260246000fd5b600082601f830112620001c657600080fd5b81516001600160401b0380821115620001e357620001e36200019e565b604051601f8301601f19908116603f011681019082821181831017156200020e576200020e6200019e565b816040528381526020925086838588010111156200022b57600080fd5b600091505b838210156200024f578582018301518183018401529082019062000230565b83821115620002615760008385830101525b9695505050505050565b600080604083850312156200027f57600080fd5b82516001600160401b03808211156200029757600080fd5b620002a586838701620001b4565b93506020850151915080821115620002bc57600080fd5b50620002cb85828601620001b4565b9150509250929050565b600181811c90821680620002ea57607f821691505b6020821081036200030b57634e487b7160e01b600052602260045260246000fd5b50919050565b601f8211156200035f57600081815260208120601f850160051c810160208610156200033a5750805b601f850160051c820191505b818110156200035b5782815560010162000346565b5050505b505050565b81516001600160401b038111156200038057620003806200019e565b6200039881620003918454620002d5565b8462000311565b602080601f831160018114620003d05760008415620003b75750858301515b600019600386901b1c1916600185901b1785556200035b565b600085815260208120601f198616915b828110156200040157888601518255948401946001909101908401620003e0565b5085821015620004205787850151600019600388901b60f8161c191681555b5050505050600190811b01905550565b60805160a05160c05160e05161010051610120516115a3620004806000396000610f6901526000610fb801526000610f9301526000610eec01526000610f1601526000610f4001526115a36000f3fe608060405234801561001057600080fd5b50600436106100f55760003560e01c80638da5cb5b11610097578063d0def52111610066578063d0def521146101e8578063d179e3d0146101fb578063ec64948e1461020e578063f2fde38b1461022157600080fd5b80638da5cb5b146101a957806395d89b41146101ba578063a3947803146101c2578063c87b56dd146101d557600080fd5b806342966c68116100d357806342966c681461014e5780636352211e1461016357806370a082311461018e578063715018a6146101a157600080fd5b806301ffc9a7146100fa57806306fdde03146101225780632986c0e514610137575b600080fd5b61010d610108366004611118565b610234565b60405190151581526020015b60405180910390f35b61012a610286565b604051610119919061119e565b61014060085481565b604051908152602001610119565b61016161015c3660046111b1565b610318565b005b6101766101713660046111b1565b6103a9565b6040516001600160a01b039091168152602001610119565b61014061019c3660046111e6565b610442565b610161610486565b6006546001600160a01b0316610176565b61012a61049a565b6101406101d0366004611243565b6104a9565b61012a6101e33660046111b1565b610582565b6101616101f63660046112c4565b610657565b6101616102093660046111b1565b6106d3565b61014061021c366004611243565b610765565b61016161022f3660046111e6565b610813565b60006001600160e01b03198216635b5e139f60e01b148061026557506001600160e01b031982166346bdd63960e11b145b8061028057506301ffc9a760e01b6001600160e01b03198316145b92915050565b60606001805461029590611317565b80601f01602080910402602001604051908101604052809291908181526020018280546102c190611317565b801561030e5780601f106102e35761010080835404028352916020019161030e565b820191906000526020600020905b8154815290600101906020018083116102f157829003601f168201915b5050505050905090565b610320610889565b3361032a826103a9565b6001600160a01b0316146103935760405162461bcd60e51b815260206004820152602560248201527f796f75207265206e6f7420746865206f772c6e6572206f662074686520746f6b604482015264195b881a5960da1b60648201526084015b60405180910390fd5b61039c816108e2565b6103a66001600755565b50565b6000818152600360205260408120546001600160a01b03166103dd5760405162461bcd60e51b815260040161038a90611351565b6000828152600360205260409020546001600160a01b0316806102805760405162461bcd60e51b815260206004820152601c60248201527f6f776e65724f663a20746f6b656e20646f65736e277420657869737400000000604482015260640161038a565b60006001600160a01b03821661046a5760405162461bcd60e51b815260040161038a90611351565b506001600160a01b031660009081526005602052604090205490565b61048e610989565b61049860006109e3565b565b60606002805461029590611317565b60006001600160a01b03861633036105035760405162461bcd60e51b815260206004820152601b60248201527f676976653a2063616e6e6f7420676976652066726f6d2073656c660000000000604482015260640161038a565b6000610513338888888888610a35565b905061055787338389898080601f016020809104026020016040519081016040528093929190818152602001838380828437600092019190915250610b6992505050565b50600881901c60009081526020819052604090208054600160ff84161b1790555b9695505050505050565b6000818152600360205260409020546060906001600160a01b03166105b95760405162461bcd60e51b815260040161038a90611351565b600082815260046020526040902080546105d290611317565b80601f01602080910402602001604051908101604052809291908181526020018280546105fe90611317565b801561064b5780601f106106205761010080835404028352916020019161064b565b820191906000526020600020905b81548152906001019060200180831161062e57829003601f168201915b50505050509050919050565b61065f610989565b610667610889565b6106ab338460085485858080601f016020809104026020016040519081016040528093929190818152602001838380828437600092019190915250610b6992505050565b506001600860008282546106bf919061139e565b90915550506001600755505050565b505050565b6106dc816103a9565b6001600160a01b0316336001600160a01b03161461073c5760405162461bcd60e51b815260206004820152601d60248201527f756e65717569703a2073656e646572206d757374206265206f776e6572000000604482015260640161038a565b600881901c60009081526020819052604090208054600160ff84161b191690556103a6816108e2565b60006001600160a01b03861633036107bf5760405162461bcd60e51b815260206004820152601b60248201527f676976653a2063616e6e6f7420676976652066726f6d2073656c660000000000604482015260640161038a565b60006107cf338888888888610a35565b905061055733888389898080601f016020809104026020016040519081016040528093929190818152602001838380828437600092019190915250610b6992505050565b61081b610989565b6001600160a01b0381166108805760405162461bcd60e51b815260206004820152602660248201527f4f776e61626c653a206e6577206f776e657220697320746865207a65726f206160448201526564647265737360d01b606482015260840161038a565b6103a6816109e3565b6002600754036108db5760405162461bcd60e51b815260206004820152601f60248201527f5265656e7472616e637947756172643a207265656e7472616e742063616c6c00604482015260640161038a565b6002600755565b6000818152600360209081526040808320546001600160a01b031680845260059092528220805491926001926109199084906113b6565b9091555050600082815260036020908152604080832080546001600160a01b03191690556004909152812061094d916110ca565b60405182906000906001600160a01b038416907fddf252ad1be2c89b69c2b068fc378daa952ba7f163c4a11628f55a4df523b3ef908390a45050565b6006546001600160a01b031633146104985760405162461bcd60e51b815260206004820181905260248201527f4f776e61626c653a2063616c6c6572206973206e6f7420746865206f776e6572604482015260640161038a565b600680546001600160a01b038381166001600160a01b0319831681179093556040519116919082907f8be0079c531659141344cd1fd0a4f28419497f9722a3daafe3b4186f6b6457e090600090a35050565b600080610a4488888888610c79565b905060008160001c9050610a8f888387878080601f016020809104026020016040519081016040528093929190818152602001838380828437600092019190915250610d0892505050565b610aea5760405162461bcd60e51b815260206004820152602660248201527f5f73616665436865636b41677265656d656e743a20696e76616c6964207369676044820152656e617475726560d01b606482015260840161038a565b600881901c600090815260208190526040902054600160ff83161b1615610b5d5760405162461bcd60e51b815260206004820152602160248201527f5f73616665436865636b41677265656d656e743a20616c7265616479207573656044820152601960fa1b606482015260840161038a565b98975050505050505050565b6000828152600360205260408120546001600160a01b031615610bc55760405162461bcd60e51b81526020600482015260146024820152736d696e743a20746f6b656e49442065786973747360601b604482015260640161038a565b6001600160a01b0384166000908152600560205260408120805460019290610bee90849061139e565b9091555050600083815260036020908152604080832080546001600160a01b0319166001600160a01b03891617905560049091529020610c2e8382611431565b5082846001600160a01b0316866001600160a01b03167fddf252ad1be2c89b69c2b068fc378daa952ba7f163c4a11628f55a4df523b3ef60405160405180910390a450909392505050565b6000807f38ac93f557dfa4d4c420a2430beea64a75bff9d32b37164a4d84da4852d5806d86868686604051610caf9291906114f1565b604051908190038120610ce7949392916020019384526001600160a01b03928316602085015291166040830152606082015260800190565b60405160208183030381529060405280519060200120905061057881610e4c565b6000806000610d178585610e9a565b90925090506000816004811115610d3057610d30611501565b148015610d4e5750856001600160a01b0316826001600160a01b0316145b15610d5e57600192505050610e45565b600080876001600160a01b0316631626ba7e60e01b8888604051602401610d86929190611517565b60408051601f198184030181529181526020820180516001600160e01b03166001600160e01b0319909416939093179092529051610dc49190611538565b600060405180830381855afa9150503d8060008114610dff576040519150601f19603f3d011682016040523d82523d6000602084013e610e04565b606091505b5091509150818015610e17575080516020145b8015610e3e57508051630b135d3f60e11b90610e3c9083016020908101908401611554565b145b9450505050505b9392505050565b6000610280610e59610edf565b8360405161190160f01b6020820152602281018390526042810182905260009060620160405160208183030381529060405280519060200120905092915050565b6000808251604103610ed05760208301516040840151606085015160001a610ec487828585611006565b94509450505050610ed8565b506000905060025b9250929050565b6000306001600160a01b037f000000000000000000000000000000000000000000000000000000000000000016148015610f3857507f000000000000000000000000000000000000000000000000000000000000000046145b15610f6257507f000000000000000000000000000000000000000000000000000000000000000090565b50604080517f00000000000000000000000000000000000000000000000000000000000000006020808301919091527f0000000000000000000000000000000000000000000000000000000000000000828401527f000000000000000000000000000000000000000000000000000000000000000060608301524660808301523060a0808401919091528351808403909101815260c0909201909252805191012090565b6000807f7fffffffffffffffffffffffffffffff5d576e7357a4501ddfe92f46681b20a083111561103d57506000905060036110c1565b6040805160008082526020820180845289905260ff881692820192909252606081018690526080810185905260019060a0016020604051602081039080840390855afa158015611091573d6000803e3d6000fd5b5050604051601f1901519150506001600160a01b0381166110ba576000600192509250506110c1565b9150600090505b94509492505050565b5080546110d690611317565b6000825580601f106110e6575050565b601f0160209004906000526020600020908101906103a691905b808211156111145760008155600101611100565b5090565b60006020828403121561112a57600080fd5b81356001600160e01b031981168114610e4557600080fd5b60005b8381101561115d578181015183820152602001611145565b8381111561116c576000848401525b50505050565b6000815180845261118a816020860160208601611142565b601f01601f19169290920160200192915050565b602081526000610e456020830184611172565b6000602082840312156111c357600080fd5b5035919050565b80356001600160a01b03811681146111e157600080fd5b919050565b6000602082840312156111f857600080fd5b610e45826111ca565b60008083601f84011261121357600080fd5b50813567ffffffffffffffff81111561122b57600080fd5b602083019150836020828501011115610ed857600080fd5b60008060008060006060868803121561125b57600080fd5b611264866111ca565b9450602086013567ffffffffffffffff8082111561128157600080fd5b61128d89838a01611201565b909650945060408801359150808211156112a657600080fd5b506112b388828901611201565b969995985093965092949392505050565b6000806000604084860312156112d957600080fd5b6112e2846111ca565b9250602084013567ffffffffffffffff8111156112fe57600080fd5b61130a86828701611201565b9497909650939450505050565b600181811c9082168061132b57607f821691505b60208210810361134b57634e487b7160e01b600052602260045260246000fd5b50919050565b6020808252601d908201527f746f6b656e5552493a20746f6b656e20646f65736e2774206578697374000000604082015260600190565b634e487b7160e01b600052601160045260246000fd5b600082198211156113b1576113b1611388565b500190565b6000828210156113c8576113c8611388565b500390565b634e487b7160e01b600052604160045260246000fd5b601f8211156106ce57600081815260208120601f850160051c8101602086101561140a5750805b601f850160051c820191505b8181101561142957828155600101611416565b505050505050565b815167ffffffffffffffff81111561144b5761144b6113cd565b61145f816114598454611317565b846113e3565b602080601f831160018114611494576000841561147c5750858301515b600019600386901b1c1916600185901b178555611429565b600085815260208120601f198616915b828110156114c3578886015182559484019460019091019084016114a4565b50858210156114e15787850151600019600388901b60f8161c191681555b5050505050600190811b01905550565b8183823760009101908152919050565b634e487b7160e01b600052602160045260246000fd5b8281526040602082015260006115306040830184611172565b949350505050565b6000825161154a818460208701611142565b9190910192915050565b60006020828403121561156657600080fd5b505191905056fea2646970667358221220b8280c82ae8f6996c31a2fb51df48f9e0abfdf76d43760d28c35022a584e8e1064736f6c634300080f0033",
    "linkReferences": {}
  },
  "methodIdentifiers": {
    "balanceOf(address)": "70a08231",
    "burn(uint256)": "42966c68",
    "give(address,string,bytes)": "ec64948e",
    "index()": "2986c0e5",
    "mint(address,string)": "d0def521",
    "name()": "06fdde03",
    "owner()": "8da5cb5b",
    "ownerOf(uint256)": "6352211e",
    "renounceOwnership()": "715018a6",
    "supportsInterface(bytes4)": "01ffc9a7",
    "symbol()": "95d89b41",
    "take(address,string,bytes)": "a3947803",
    "tokenURI(uint256)": "c87b56dd",
    "transferOwnership(address)": "f2fde38b",
    "unequip(uint256)": "d179e3d0"
  },
  "id": 31
}