{
  "abi": [
    {
      "inputs": [
        {
          "internalType": "string",
          "name": "name_",
          "type": "string"
        },
        {
          "internalType": "string",
          "name": "symbol_",
          "type": "string"
        }
      ],
      "stateMutability": "nonpayable",
      "type": "constructor"
    },
    {
      "anonymous": false,
      "inputs": [
        {
          "indexed": true,
          "internalType": "address",
          "name": "from",
          "type": "address"
        },
        {
          "indexed": true,
          "internalType": "address",
          "name": "to",
          "type": "address"
        },
        {
          "indexed": true,
          "internalType": "uint256",
          "name": "tokenId",
          "type": "uint256"
        }
      ],
      "name": "Transfer",
      "type": "event"
    },
    {
      "inputs": [
        {
          "internalType": "address",
          "name": "owner",
          "type": "address"
        }
      ],
      "name": "balanceOf",
      "outputs": [
        {
          "internalType": "uint256",
          "name": "",
          "type": "uint256"
        }
      ],
      "stateMutability": "view",
      "type": "function"
    },
    {
      "inputs": [
        {
          "internalType": "uint256",
          "name": "tokenId_",
          "type": "uint256"
        }
      ],
      "name": "burn",
      "outputs": [],
      "stateMutability": "nonpayable",
      "type": "function"
    },
    {
      "inputs": [
        {
          "internalType": "address",
          "name": "to",
          "type": "address"
        },
        {
          "internalType": "string",
          "name": "uri",
          "type": "string"
        },
        {
          "internalType": "bytes",
          "name": "signature",
          "type": "bytes"
        }
      ],
      "name": "give",
      "outputs": [
        {
          "internalType": "uint256",
          "name": "",
          "type": "uint256"
        }
      ],
      "stateMutability": "nonpayable",
      "type": "function"
    },
    {
      "inputs": [],
      "name": "index",
      "outputs": [
        {
          "internalType": "uint256",
          "name": "",
          "type": "uint256"
        }
      ],
      "stateMutability": "view",
      "type": "function"
    },
    {
      "inputs": [
        {
          "internalType": "address",
          "name": "beneficiary_",
          "type": "address"
        },
        {
          "internalType": "string",
          "name": "uri_",
          "type": "string"
        }
      ],
      "name": "mint",
      "outputs": [],
      "stateMutability": "nonpayable",
      "type": "function"
    },
    {
      "inputs": [],
      "name": "name",
      "outputs": [
        {
          "internalType": "string",
          "name": "",
          "type": "string"
        }
      ],
      "stateMutability": "view",
      "type": "function"
    },
    {
      "inputs": [
        {
          "internalType": "uint256",
          "name": "tokenId",
          "type": "uint256"
        }
      ],
      "name": "ownerOf",
      "outputs": [
        {
          "internalType": "address",
          "name": "",
          "type": "address"
        }
      ],
      "stateMutability": "view",
      "type": "function"
    },
    {
      "inputs": [
        {
          "internalType": "bytes4",
          "name": "interfaceId",
          "type": "bytes4"
        }
      ],
      "name": "supportsInterface",
      "outputs": [
        {
          "internalType": "bool",
          "name": "",
          "type": "bool"
        }
      ],
      "stateMutability": "view",
      "type": "function"
    },
    {
      "inputs": [],
      "name": "symbol",
      "outputs": [
        {
          "internalType": "string",
          "name": "",
          "type": "string"
        }
      ],
      "stateMutability": "view",
      "type": "function"
    },
    {
      "inputs": [
        {
          "internalType": "address",
          "name": "from",
          "type": "address"
        },
        {
          "internalType": "string",
          "name": "uri",
          "type": "string"
        },
        {
          "internalType": "bytes",
          "name": "signature",
          "type": "bytes"
        }
      ],
      "name": "take",
      "outputs": [
        {
          "internalType": "uint256",
          "name": "",
          "type": "uint256"
        }
      ],
      "stateMutability": "nonpayable",
      "type": "function"
    },
    {
      "inputs": [
        {
          "internalType": "uint256",
          "name": "tokenId",
          "type": "uint256"
        }
      ],
      "name": "tokenURI",
      "outputs": [
        {
          "internalType": "string",
          "name": "",
          "type": "string"
        }
      ],
      "stateMutability": "view",
      "type": "function"
    },
    {
      "inputs": [
        {
          "internalType": "uint256",
          "name": "tokenId",
          "type": "uint256"
        }
      ],
      "name": "unequip",
      "outputs": [],
      "stateMutability": "nonpayable",
      "type": "function"
    }
  ],
  "bytecode": {
    "object": "0x61014060405260006007553480156200001757600080fd5b5060405162001809380380620018098339810160408190526200003a91620001fc565b6040805180820182526001808252603160f81b60208084019190915285518682012060e08190527fc89efdaa54c0f20c7adf612882df0950f5a951637e0307cdcb4c672f298b8bc66101008190524660a081815287517f8b73c3c69bb8fe3d512ecc4cf759cc79239f7b179b0ffacaa9a75d522b39400f818701819052818a01959095526060810193909352608080840192909252308382018190528851808503909201825260c093840190985280519401939093209092529390526101209290925283918391906200010e8482620002f5565b5060026200011d8382620002f5565b5050600160065550620003c192505050565b634e487b7160e01b600052604160045260246000fd5b600082601f8301126200015757600080fd5b81516001600160401b03808211156200017457620001746200012f565b604051601f8301601f19908116603f011681019082821181831017156200019f576200019f6200012f565b81604052838152602092508683858801011115620001bc57600080fd5b600091505b83821015620001e05785820183015181830184015290820190620001c1565b83821115620001f25760008385830101525b9695505050505050565b600080604083850312156200021057600080fd5b82516001600160401b03808211156200022857600080fd5b620002368683870162000145565b935060208501519150808211156200024d57600080fd5b506200025c8582860162000145565b9150509250929050565b600181811c908216806200027b57607f821691505b6020821081036200029c57634e487b7160e01b600052602260045260246000fd5b50919050565b601f821115620002f057600081815260208120601f850160051c81016020861015620002cb5750805b601f850160051c820191505b81811015620002ec57828155600101620002d7565b5050505b505050565b81516001600160401b038111156200031157620003116200012f565b620003298162000322845462000266565b84620002a2565b602080601f831160018114620003615760008415620003485750858301515b600019600386901b1c1916600185901b178555620002ec565b600085815260208120601f198616915b82811015620003925788860151825594840194600190910190840162000371565b5085821015620003b15787850151600019600388901b60f8161c191681555b5050505050600190811b01905550565b60805160a05160c05160e05161010051610120516113f8620004116000396000610dbe01526000610e0d01526000610de801526000610d4101526000610d6b01526000610d9501526113f86000f3fe608060405234801561001057600080fd5b50600436106100b45760003560e01c806395d89b411161007157806395d89b4114610160578063a394780314610168578063c87b56dd1461017b578063d0def5211461018e578063d179e3d0146101a1578063ec64948e146101b457600080fd5b806301ffc9a7146100b957806306fdde03146100e15780632986c0e5146100f657806342966c681461010d5780636352211e1461012257806370a082311461014d575b600080fd5b6100cc6100c7366004610f6d565b6101c7565b60405190151581526020015b60405180910390f35b6100e9610219565b6040516100d89190610ff3565b6100ff60075481565b6040519081526020016100d8565b61012061011b366004611006565b6102ab565b005b610135610130366004611006565b61033c565b6040516001600160a01b0390911681526020016100d8565b6100ff61015b36600461103b565b6103d5565b6100e9610419565b6100ff610176366004611098565b610428565b6100e9610189366004611006565b610501565b61012061019c366004611119565b6105d6565b6101206101af366004611006565b61064a565b6100ff6101c2366004611098565b6106dc565b60006001600160e01b03198216635b5e139f60e01b14806101f857506001600160e01b031982166346bdd63960e11b145b8061021357506301ffc9a760e01b6001600160e01b03198316145b92915050565b6060600180546102289061116c565b80601f01602080910402602001604051908101604052809291908181526020018280546102549061116c565b80156102a15780601f10610276576101008083540402835291602001916102a1565b820191906000526020600020905b81548152906001019060200180831161028457829003601f168201915b5050505050905090565b6102b361078a565b336102bd8261033c565b6001600160a01b0316146103265760405162461bcd60e51b815260206004820152602560248201527f796f75207265206e6f7420746865206f772c6e6572206f662074686520746f6b604482015264195b881a5960da1b60648201526084015b60405180910390fd5b61032f816107e3565b6103396001600655565b50565b6000818152600360205260408120546001600160a01b03166103705760405162461bcd60e51b815260040161031d906111a6565b6000828152600360205260409020546001600160a01b0316806102135760405162461bcd60e51b815260206004820152601c60248201527f6f776e65724f663a20746f6b656e20646f65736e277420657869737400000000604482015260640161031d565b60006001600160a01b0382166103fd5760405162461bcd60e51b815260040161031d906111a6565b506001600160a01b031660009081526005602052604090205490565b6060600280546102289061116c565b60006001600160a01b03861633036104825760405162461bcd60e51b815260206004820152601b60248201527f676976653a2063616e6e6f7420676976652066726f6d2073656c660000000000604482015260640161031d565b600061049233888888888861088a565b90506104d687338389898080601f0160208091040260200160405190810160405280939291908181526020018383808284376000920191909152506109be92505050565b50600881901c60009081526020819052604090208054600160ff84161b1790555b9695505050505050565b6000818152600360205260409020546060906001600160a01b03166105385760405162461bcd60e51b815260040161031d906111a6565b600082815260046020526040902080546105519061116c565b80601f016020809104026020016040519081016040528092919081815260200182805461057d9061116c565b80156105ca5780601f1061059f576101008083540402835291602001916105ca565b820191906000526020600020905b8154815290600101906020018083116105ad57829003601f168201915b50505050509050919050565b6105de61078a565b610622338460075485858080601f0160208091040260200160405190810160405280939291908181526020018383808284376000920191909152506109be92505050565b5060016007600082825461063691906111f3565b90915550506001600655505050565b505050565b6106538161033c565b6001600160a01b0316336001600160a01b0316146106b35760405162461bcd60e51b815260206004820152601d60248201527f756e65717569703a2073656e646572206d757374206265206f776e6572000000604482015260640161031d565b600881901c60009081526020819052604090208054600160ff84161b19169055610339816107e3565b60006001600160a01b03861633036107365760405162461bcd60e51b815260206004820152601b60248201527f676976653a2063616e6e6f7420676976652066726f6d2073656c660000000000604482015260640161031d565b600061074633888888888861088a565b90506104d633888389898080601f0160208091040260200160405190810160405280939291908181526020018383808284376000920191909152506109be92505050565b6002600654036107dc5760405162461bcd60e51b815260206004820152601f60248201527f5265656e7472616e637947756172643a207265656e7472616e742063616c6c00604482015260640161031d565b6002600655565b6000818152600360209081526040808320546001600160a01b0316808452600590925282208054919260019261081a90849061120b565b9091555050600082815260036020908152604080832080546001600160a01b03191690556004909152812061084e91610f1f565b60405182906000906001600160a01b038416907fddf252ad1be2c89b69c2b068fc378daa952ba7f163c4a11628f55a4df523b3ef908390a45050565b60008061089988888888610ace565b905060008160001c90506108e4888387878080601f016020809104026020016040519081016040528093929190818152602001838380828437600092019190915250610b5d92505050565b61093f5760405162461bcd60e51b815260206004820152602660248201527f5f73616665436865636b41677265656d656e743a20696e76616c6964207369676044820152656e617475726560d01b606482015260840161031d565b600881901c600090815260208190526040902054600160ff83161b16156109b25760405162461bcd60e51b815260206004820152602160248201527f5f73616665436865636b41677265656d656e743a20616c7265616479207573656044820152601960fa1b606482015260840161031d565b98975050505050505050565b6000828152600360205260408120546001600160a01b031615610a1a5760405162461bcd60e51b81526020600482015260146024820152736d696e743a20746f6b656e49442065786973747360601b604482015260640161031d565b6001600160a01b0384166000908152600560205260408120805460019290610a439084906111f3565b9091555050600083815260036020908152604080832080546001600160a01b0319166001600160a01b03891617905560049091529020610a838382611286565b5082846001600160a01b0316866001600160a01b03167fddf252ad1be2c89b69c2b068fc378daa952ba7f163c4a11628f55a4df523b3ef60405160405180910390a450909392505050565b6000807f38ac93f557dfa4d4c420a2430beea64a75bff9d32b37164a4d84da4852d5806d86868686604051610b04929190611346565b604051908190038120610b3c949392916020019384526001600160a01b03928316602085015291166040830152606082015260800190565b6040516020818303038152906040528051906020012090506104f781610ca1565b6000806000610b6c8585610cef565b90925090506000816004811115610b8557610b85611356565b148015610ba35750856001600160a01b0316826001600160a01b0316145b15610bb357600192505050610c9a565b600080876001600160a01b0316631626ba7e60e01b8888604051602401610bdb92919061136c565b60408051601f198184030181529181526020820180516001600160e01b03166001600160e01b0319909416939093179092529051610c19919061138d565b600060405180830381855afa9150503d8060008114610c54576040519150601f19603f3d011682016040523d82523d6000602084013e610c59565b606091505b5091509150818015610c6c575080516020145b8015610c9357508051630b135d3f60e11b90610c9190830160209081019084016113a9565b145b9450505050505b9392505050565b6000610213610cae610d34565b8360405161190160f01b6020820152602281018390526042810182905260009060620160405160208183030381529060405280519060200120905092915050565b6000808251604103610d255760208301516040840151606085015160001a610d1987828585610e5b565b94509450505050610d2d565b506000905060025b9250929050565b6000306001600160a01b037f000000000000000000000000000000000000000000000000000000000000000016148015610d8d57507f000000000000000000000000000000000000000000000000000000000000000046145b15610db757507f000000000000000000000000000000000000000000000000000000000000000090565b50604080517f00000000000000000000000000000000000000000000000000000000000000006020808301919091527f0000000000000000000000000000000000000000000000000000000000000000828401527f000000000000000000000000000000000000000000000000000000000000000060608301524660808301523060a0808401919091528351808403909101815260c0909201909252805191012090565b6000807f7fffffffffffffffffffffffffffffff5d576e7357a4501ddfe92f46681b20a0831115610e925750600090506003610f16565b6040805160008082526020820180845289905260ff881692820192909252606081018690526080810185905260019060a0016020604051602081039080840390855afa158015610ee6573d6000803e3d6000fd5b5050604051601f1901519150506001600160a01b038116610f0f57600060019250925050610f16565b9150600090505b94509492505050565b508054610f2b9061116c565b6000825580601f10610f3b575050565b601f01602090049060005260206000209081019061033991905b80821115610f695760008155600101610f55565b5090565b600060208284031215610f7f57600080fd5b81356001600160e01b031981168114610c9a57600080fd5b60005b83811015610fb2578181015183820152602001610f9a565b83811115610fc1576000848401525b50505050565b60008151808452610fdf816020860160208601610f97565b601f01601f19169290920160200192915050565b602081526000610c9a6020830184610fc7565b60006020828403121561101857600080fd5b5035919050565b80356001600160a01b038116811461103657600080fd5b919050565b60006020828403121561104d57600080fd5b610c9a8261101f565b60008083601f84011261106857600080fd5b50813567ffffffffffffffff81111561108057600080fd5b602083019150836020828501011115610d2d57600080fd5b6000806000806000606086880312156110b057600080fd5b6110b98661101f565b9450602086013567ffffffffffffffff808211156110d657600080fd5b6110e289838a01611056565b909650945060408801359150808211156110fb57600080fd5b5061110888828901611056565b969995985093965092949392505050565b60008060006040848603121561112e57600080fd5b6111378461101f565b9250602084013567ffffffffffffffff81111561115357600080fd5b61115f86828701611056565b9497909650939450505050565b600181811c9082168061118057607f821691505b6020821081036111a057634e487b7160e01b600052602260045260246000fd5b50919050565b6020808252601d908201527f746f6b656e5552493a20746f6b656e20646f65736e2774206578697374000000604082015260600190565b634e487b7160e01b600052601160045260246000fd5b60008219821115611206576112066111dd565b500190565b60008282101561121d5761121d6111dd565b500390565b634e487b7160e01b600052604160045260246000fd5b601f82111561064557600081815260208120601f850160051c8101602086101561125f5750805b601f850160051c820191505b8181101561127e5782815560010161126b565b505050505050565b815167ffffffffffffffff8111156112a0576112a0611222565b6112b4816112ae845461116c565b84611238565b602080601f8311600181146112e957600084156112d15750858301515b600019600386901b1c1916600185901b17855561127e565b600085815260208120601f198616915b82811015611318578886015182559484019460019091019084016112f9565b50858210156113365787850151600019600388901b60f8161c191681555b5050505050600190811b01905550565b8183823760009101908152919050565b634e487b7160e01b600052602160045260246000fd5b8281526040602082015260006113856040830184610fc7565b949350505050565b6000825161139f818460208701610f97565b9190910192915050565b6000602082840312156113bb57600080fd5b505191905056fea264697066735822122028b19239bbc3a76f383298f13e3306d103be482b6987987d6a49149b79c25f4264736f6c634300080f0033",
    "linkReferences": {}
  },
  "methodIdentifiers": {
    "balanceOf(address)": "70a08231",
    "burn(uint256)": "42966c68",
    "give(address,string,bytes)": "ec64948e",
    "index()": "2986c0e5",
    "mint(address,string)": "d0def521",
    "name()": "06fdde03",
    "ownerOf(uint256)": "6352211e",
    "supportsInterface(bytes4)": "01ffc9a7",
    "symbol()": "95d89b41",
    "take(address,string,bytes)": "a3947803",
    "tokenURI(uint256)": "c87b56dd",
    "unequip(uint256)": "d179e3d0"
  },
  "id": 29
}