{
  "abi": [
    {
      "inputs": [],
      "stateMutability": "nonpayable",
      "type": "constructor"
    },
    {
      "inputs": [],
      "name": "NullRecipientNotAllowed",
      "type": "error"
    },
    {
      "inputs": [],
      "name": "NullUriNotAllowed",
      "type": "error"
    },
    {
      "inputs": [],
      "name": "SBTAddressNotSet",
      "type": "error"
    },
    {
      "inputs": [],
      "name": "SizeIsWrong",
      "type": "error"
    },
    {
      "anonymous": false,
      "inputs": [
        {
          "indexed": true,
          "internalType": "address",
          "name": "previousOwner",
          "type": "address"
        },
        {
          "indexed": true,
          "internalType": "address",
          "name": "newOwner",
          "type": "address"
        }
      ],
      "name": "OwnershipTransferred",
      "type": "event"
    },
    {
      "inputs": [],
      "name": "SBT_ADDRESS",
      "outputs": [
        {
          "internalType": "address",
          "name": "",
          "type": "address"
        }
      ],
      "stateMutability": "view",
      "type": "function"
    },
    {
      "inputs": [
        {
          "internalType": "address[]",
          "name": "recipients",
          "type": "address[]"
        },
        {
          "internalType": "string[]",
          "name": "uris",
          "type": "string[]"
        }
      ],
      "name": "endorse",
      "outputs": [],
      "stateMutability": "nonpayable",
      "type": "function"
    },
    {
      "inputs": [
        {
          "internalType": "address",
          "name": "owner",
          "type": "address"
        }
      ],
      "name": "getSBTsByAddress",
      "outputs": [
        {
          "internalType": "string[]",
          "name": "",
          "type": "string[]"
        }
      ],
      "stateMutability": "view",
      "type": "function"
    },
    {
      "inputs": [],
      "name": "owner",
      "outputs": [
        {
          "internalType": "address",
          "name": "",
          "type": "address"
        }
      ],
      "stateMutability": "view",
      "type": "function"
    },
    {
      "inputs": [
        {
          "internalType": "address",
          "name": "",
          "type": "address"
        },
        {
          "internalType": "string",
          "name": "",
          "type": "string"
        }
      ],
      "name": "referralsByOwnerBySkill",
      "outputs": [
        {
          "internalType": "uint256",
          "name": "",
          "type": "uint256"
        }
      ],
      "stateMutability": "view",
      "type": "function"
    },
    {
      "inputs": [],
      "name": "renounceOwnership",
      "outputs": [],
      "stateMutability": "nonpayable",
      "type": "function"
    },
    {
      "inputs": [
        {
          "internalType": "address",
          "name": "value_",
          "type": "address"
        }
      ],
      "name": "setSBTAddress",
      "outputs": [],
      "stateMutability": "nonpayable",
      "type": "function"
    },
    {
      "inputs": [
        {
          "internalType": "address",
          "name": "newOwner",
          "type": "address"
        }
      ],
      "name": "transferOwnership",
      "outputs": [],
      "stateMutability": "nonpayable",
      "type": "function"
    },
    {
      "inputs": [
        {
          "internalType": "address",
          "name": "",
          "type": "address"
        }
      ],
      "name": "uniqueRecommandations",
      "outputs": [
        {
          "internalType": "uint256",
          "name": "",
          "type": "uint256"
        }
      ],
      "stateMutability": "view",
      "type": "function"
    }
  ],
  "bytecode": {
    "object": "0x608060405234801561001057600080fd5b50600160005561001f33610024565b610076565b600180546001600160a01b038381166001600160a01b0319831681179093556040519116919082907f8be0079c531659141344cd1fd0a4f28419497f9722a3daafe3b4186f6b6457e090600090a35050565b610c62806100856000396000f3fe608060405234801561001057600080fd5b50600436106100935760003560e01c8063715018a611610066578063715018a6146101475780638da5cb5b1461014f578063ad016ef014610160578063de6d2aca14610173578063f2fde38b1461019357600080fd5b80630cad5a5214610098578063132f4797146100c857806317a0532d146100dd5780635b50adf1146100fd575b600080fd5b6004546100ab906001600160a01b031681565b6040516001600160a01b0390911681526020015b60405180910390f35b6100db6100d636600461090c565b6101a6565b005b6100f06100eb3660046109ce565b6103ad565b6040516100bf9190610a4e565b61013961010b366004610ab0565b6003602090815260009283526040909220815180830184018051928152908401929093019190912091525481565b6040519081526020016100bf565b6100db6105c2565b6001546001600160a01b03166100ab565b6100db61016e3660046109ce565b6105d6565b6101396101813660046109ce565b60026020526000908152604090205481565b6100db6101a13660046109ce565b610600565b6101ae61067e565b6004546001600160a01b03166101d757604051630b97e5cf60e21b815260040160405180910390fd5b815181518082146101fb57604051637c259f7160e01b815260040160405180910390fd5b60005b828110156102a35760006001600160a01b031685828151811061022357610223610af6565b60200260200101516001600160a01b031603610252576040516317d2853d60e01b815260040160405180910390fd5b600084828151811061026657610266610af6565b602002602001015151905080600003610292576040516307c3b01f60e11b815260040160405180910390fd5b5061029c81610b22565b90506101fe565b5060005b8281101561039c5760008582815181106102c3576102c3610af6565b60200260200101519050600460009054906101000a90046001600160a01b03166001600160a01b031663d0def5218287858151811061030457610304610af6565b60200260200101516040518363ffffffff1660e01b8152600401610329929190610b3b565b600060405180830381600087803b15801561034357600080fd5b505af1158015610357573d6000803e3d6000fd5b505050506001600160a01b0381166000908152600260205260408120805460019290610384908490610b67565b909155506103959150829050610b22565b90506102a7565b5050506103a96001600055565b5050565b6001600160a01b03808216600090815260026020908152604080832054600480548351632986c0e560e01b815293516060979396959190931693632986c0e5938184019390918290030181865afa15801561040c573d6000803e3d6000fd5b505050506040513d601f19601f820116820180604052508101906104309190610b7f565b90506000808367ffffffffffffffff81111561044e5761044e610783565b60405190808252806020026020018201604052801561048157816020015b606081526020019060019003908161046c5790505b50905060005b838110156105b857600480546040516331a9108f60e11b81529182018390526001600160a01b0389811692911690636352211e90602401602060405180830381865afa1580156104db573d6000803e3d6000fd5b505050506040513d601f19601f820116820180604052508101906104ff9190610b98565b6001600160a01b0316036105a8576004805460405163c87b56dd60e01b81529182018390526001600160a01b03169063c87b56dd90602401600060405180830381865afa158015610554573d6000803e3d6000fd5b505050506040513d6000823e601f3d908101601f1916820160405261057c9190810190610bb5565b82848151811061058e5761058e610af6565b602002602001018190525082806105a490610b22565b9350505b6105b181610b22565b9050610487565b5095945050505050565b6105ca6106d7565b6105d46000610731565b565b6105de6106d7565b600480546001600160a01b0319166001600160a01b0392909216919091179055565b6106086106d7565b6001600160a01b0381166106725760405162461bcd60e51b815260206004820152602660248201527f4f776e61626c653a206e6577206f776e657220697320746865207a65726f206160448201526564647265737360d01b60648201526084015b60405180910390fd5b61067b81610731565b50565b6002600054036106d05760405162461bcd60e51b815260206004820152601f60248201527f5265656e7472616e637947756172643a207265656e7472616e742063616c6c006044820152606401610669565b6002600055565b6001546001600160a01b031633146105d45760405162461bcd60e51b815260206004820181905260248201527f4f776e61626c653a2063616c6c6572206973206e6f7420746865206f776e65726044820152606401610669565b600180546001600160a01b038381166001600160a01b0319831681179093556040519116919082907f8be0079c531659141344cd1fd0a4f28419497f9722a3daafe3b4186f6b6457e090600090a35050565b634e487b7160e01b600052604160045260246000fd5b604051601f8201601f1916810167ffffffffffffffff811182821017156107c2576107c2610783565b604052919050565b600067ffffffffffffffff8211156107e4576107e4610783565b5060051b60200190565b6001600160a01b038116811461067b57600080fd5b600067ffffffffffffffff82111561081d5761081d610783565b50601f01601f191660200190565b600082601f83011261083c57600080fd5b813561084f61084a82610803565b610799565b81815284602083860101111561086457600080fd5b816020850160208301376000918101602001919091529392505050565b600082601f83011261089257600080fd5b813560206108a261084a836107ca565b82815260059290921b840181019181810190868411156108c157600080fd5b8286015b8481101561090157803567ffffffffffffffff8111156108e55760008081fd5b6108f38986838b010161082b565b8452509183019183016108c5565b509695505050505050565b6000806040838503121561091f57600080fd5b823567ffffffffffffffff8082111561093757600080fd5b818501915085601f83011261094b57600080fd5b8135602061095b61084a836107ca565b82815260059290921b8401810191818101908984111561097a57600080fd5b948201945b838610156109a1578535610992816107ee565b8252948201949082019061097f565b965050860135925050808211156109b757600080fd5b506109c485828601610881565b9150509250929050565b6000602082840312156109e057600080fd5b81356109eb816107ee565b9392505050565b60005b83811015610a0d5781810151838201526020016109f5565b83811115610a1c576000848401525b50505050565b60008151808452610a3a8160208601602086016109f2565b601f01601f19169290920160200192915050565b6000602080830181845280855180835260408601915060408160051b870101925083870160005b82811015610aa357603f19888603018452610a91858351610a22565b94509285019290850190600101610a75565b5092979650505050505050565b60008060408385031215610ac357600080fd5b8235610ace816107ee565b9150602083013567ffffffffffffffff811115610aea57600080fd5b6109c48582860161082b565b634e487b7160e01b600052603260045260246000fd5b634e487b7160e01b600052601160045260246000fd5b600060018201610b3457610b34610b0c565b5060010190565b6001600160a01b0383168152604060208201819052600090610b5f90830184610a22565b949350505050565b60008219821115610b7a57610b7a610b0c565b500190565b600060208284031215610b9157600080fd5b5051919050565b600060208284031215610baa57600080fd5b81516109eb816107ee565b600060208284031215610bc757600080fd5b815167ffffffffffffffff811115610bde57600080fd5b8201601f81018413610bef57600080fd5b8051610bfd61084a82610803565b818152856020838501011115610c1257600080fd5b610c238260208301602086016109f2565b9594505050505056fea2646970667358221220b9ea0eb8736fb1ecea6dcdc0ff71167192ef9e9c5540882dee51ad1f40bfa45a64736f6c634300080f0033",
    "linkReferences": {}
  },
  "methodIdentifiers": {
    "SBT_ADDRESS()": "0cad5a52",
    "endorse(address[],string[])": "132f4797",
    "getSBTsByAddress(address)": "17a0532d",
    "owner()": "8da5cb5b",
    "referralsByOwnerBySkill(address,string)": "5b50adf1",
    "renounceOwnership()": "715018a6",
    "setSBTAddress(address)": "ad016ef0",
    "transferOwnership(address)": "f2fde38b",
    "uniqueRecommandations(address)": "de6d2aca"
  },
  "id": 28
}