{
  "abi": [
    {
      "inputs": [
        {
          "internalType": "string",
          "name": "name_",
          "type": "string"
        },
        {
          "internalType": "string",
          "name": "symbol_",
          "type": "string"
        },
        {
          "internalType": "string",
          "name": "version",
          "type": "string"
        }
      ],
      "stateMutability": "nonpayable",
      "type": "constructor"
    },
    {
      "anonymous": false,
      "inputs": [
        {
          "indexed": true,
          "internalType": "address",
          "name": "from",
          "type": "address"
        },
        {
          "indexed": true,
          "internalType": "address",
          "name": "to",
          "type": "address"
        },
        {
          "indexed": true,
          "internalType": "uint256",
          "name": "tokenId",
          "type": "uint256"
        }
      ],
      "name": "Transfer",
      "type": "event"
    },
    {
      "inputs": [
        {
          "internalType": "address",
          "name": "owner",
          "type": "address"
        }
      ],
      "name": "balanceOf",
      "outputs": [
        {
          "internalType": "uint256",
          "name": "",
          "type": "uint256"
        }
      ],
      "stateMutability": "view",
      "type": "function"
    },
    {
      "inputs": [
        {
          "internalType": "address",
          "name": "to",
          "type": "address"
        },
        {
          "internalType": "string",
          "name": "uri",
          "type": "string"
        },
        {
          "internalType": "bytes",
          "name": "signature",
          "type": "bytes"
        }
      ],
      "name": "give",
      "outputs": [
        {
          "internalType": "uint256",
          "name": "",
          "type": "uint256"
        }
      ],
      "stateMutability": "nonpayable",
      "type": "function"
    },
    {
      "inputs": [],
      "name": "name",
      "outputs": [
        {
          "internalType": "string",
          "name": "",
          "type": "string"
        }
      ],
      "stateMutability": "view",
      "type": "function"
    },
    {
      "inputs": [
        {
          "internalType": "uint256",
          "name": "tokenId",
          "type": "uint256"
        }
      ],
      "name": "ownerOf",
      "outputs": [
        {
          "internalType": "address",
          "name": "",
          "type": "address"
        }
      ],
      "stateMutability": "view",
      "type": "function"
    },
    {
      "inputs": [
        {
          "internalType": "bytes4",
          "name": "interfaceId",
          "type": "bytes4"
        }
      ],
      "name": "supportsInterface",
      "outputs": [
        {
          "internalType": "bool",
          "name": "",
          "type": "bool"
        }
      ],
      "stateMutability": "view",
      "type": "function"
    },
    {
      "inputs": [],
      "name": "symbol",
      "outputs": [
        {
          "internalType": "string",
          "name": "",
          "type": "string"
        }
      ],
      "stateMutability": "view",
      "type": "function"
    },
    {
      "inputs": [
        {
          "internalType": "address",
          "name": "from",
          "type": "address"
        },
        {
          "internalType": "string",
          "name": "uri",
          "type": "string"
        },
        {
          "internalType": "bytes",
          "name": "signature",
          "type": "bytes"
        }
      ],
      "name": "take",
      "outputs": [
        {
          "internalType": "uint256",
          "name": "",
          "type": "uint256"
        }
      ],
      "stateMutability": "nonpayable",
      "type": "function"
    },
    {
      "inputs": [
        {
          "internalType": "uint256",
          "name": "tokenId",
          "type": "uint256"
        }
      ],
      "name": "tokenURI",
      "outputs": [
        {
          "internalType": "string",
          "name": "",
          "type": "string"
        }
      ],
      "stateMutability": "view",
      "type": "function"
    },
    {
      "inputs": [
        {
          "internalType": "uint256",
          "name": "tokenId",
          "type": "uint256"
        }
      ],
      "name": "unequip",
      "outputs": [],
      "stateMutability": "nonpayable",
      "type": "function"
    }
  ],
  "bytecode": {
    "object": "0x6101406040523480156200001257600080fd5b50604051620015f8380380620015f88339810160408190526200003591620001b8565b825160208085019190912082518383012060e08290526101008190524660a0818152604080517f8b73c3c69bb8fe3d512ecc4cf759cc79239f7b179b0ffacaa9a75d522b39400f818801819052818301969096526060810194909452608080850193909352308483018190528151808603909301835260c094850190915281519190950120905291909152610120526001620000d28482620002d8565b506002620000e18382620002d8565b50505050620003a4565b634e487b7160e01b600052604160045260246000fd5b600082601f8301126200011357600080fd5b81516001600160401b0380821115620001305762000130620000eb565b604051601f8301601f19908116603f011681019082821181831017156200015b576200015b620000eb565b816040528381526020925086838588010111156200017857600080fd5b600091505b838210156200019c57858201830151818301840152908201906200017d565b83821115620001ae5760008385830101525b9695505050505050565b600080600060608486031215620001ce57600080fd5b83516001600160401b0380821115620001e657600080fd5b620001f48783880162000101565b945060208601519150808211156200020b57600080fd5b620002198783880162000101565b935060408601519150808211156200023057600080fd5b506200023f8682870162000101565b9150509250925092565b600181811c908216806200025e57607f821691505b6020821081036200027f57634e487b7160e01b600052602260045260246000fd5b50919050565b601f821115620002d357600081815260208120601f850160051c81016020861015620002ae5750805b601f850160051c820191505b81811015620002cf57828155600101620002ba565b5050505b505050565b81516001600160401b03811115620002f457620002f4620000eb565b6200030c8162000305845462000249565b8462000285565b602080601f8311600181146200034457600084156200032b5750858301515b600019600386901b1c1916600185901b178555620002cf565b600085815260208120601f198616915b82811015620003755788860151825594840194600190910190840162000354565b5085821015620003945787850151600019600388901b60f8161c191681555b5050505050600190811b01905550565b60805160a05160c05160e0516101005161012051611204620003f46000396000610c1c01526000610c6b01526000610c4601526000610b9f01526000610bc901526000610bf301526112046000f3fe608060405234801561001057600080fd5b50600436106100935760003560e01c806395d89b411161006657806395d89b4114610121578063a394780314610129578063c87b56dd1461013c578063d179e3d01461014f578063ec64948e1461016457600080fd5b806301ffc9a71461009857806306fdde03146100c05780636352211e146100d557806370a0823114610100575b600080fd5b6100ab6100a6366004610dcb565b610177565b60405190151581526020015b60405180910390f35b6100c86101c9565b6040516100b79190610e51565b6100e86100e3366004610e64565b61025b565b6040516001600160a01b0390911681526020016100b7565b61011361010e366004610e99565b6102fd565b6040519081526020016100b7565b6100c8610341565b610113610137366004610ef6565b610350565b6100c861014a366004610e64565b610429565b61016261015d366004610e64565b6104fe565b005b610113610172366004610ef6565b610593565b60006001600160e01b03198216635b5e139f60e01b14806101a857506001600160e01b031982166346bdd63960e11b145b806101c357506301ffc9a760e01b6001600160e01b03198316145b92915050565b6060600180546101d890610f77565b80601f016020809104026020016040519081016040528092919081815260200182805461020490610f77565b80156102515780601f1061022657610100808354040283529160200191610251565b820191906000526020600020905b81548152906001019060200180831161023457829003601f168201915b5050505050905090565b6000818152600360205260408120546001600160a01b03166102985760405162461bcd60e51b815260040161028f90610fb1565b60405180910390fd5b6000828152600360205260409020546001600160a01b0316806101c35760405162461bcd60e51b815260206004820152601c60248201527f6f776e65724f663a20746f6b656e20646f65736e277420657869737400000000604482015260640161028f565b60006001600160a01b0382166103255760405162461bcd60e51b815260040161028f90610fb1565b506001600160a01b031660009081526005602052604090205490565b6060600280546101d890610f77565b60006001600160a01b03861633036103aa5760405162461bcd60e51b815260206004820152601b60248201527f676976653a2063616e6e6f7420676976652066726f6d2073656c660000000000604482015260640161028f565b60006103ba338888888888610641565b90506103fe87338389898080601f01602080910402602001604051908101604052809392919081815260200183838082843760009201919091525061077592505050565b50600881901c60009081526020819052604090208054600160ff84161b1790555b9695505050505050565b6000818152600360205260409020546060906001600160a01b03166104605760405162461bcd60e51b815260040161028f90610fb1565b6000828152600460205260409020805461047990610f77565b80601f01602080910402602001604051908101604052809291908181526020018280546104a590610f77565b80156104f25780601f106104c7576101008083540402835291602001916104f2565b820191906000526020600020905b8154815290600101906020018083116104d557829003601f168201915b50505050509050919050565b6105078161025b565b6001600160a01b0316336001600160a01b0316146105675760405162461bcd60e51b815260206004820152601d60248201527f756e65717569703a2073656e646572206d757374206265206f776e6572000000604482015260640161028f565b600881901c60009081526020819052604090208054600160ff84161b1916905561059081610885565b50565b60006001600160a01b03861633036105ed5760405162461bcd60e51b815260206004820152601b60248201527f676976653a2063616e6e6f7420676976652066726f6d2073656c660000000000604482015260640161028f565b60006105fd338888888888610641565b90506103fe33888389898080601f01602080910402602001604051908101604052809392919081815260200183838082843760009201919091525061077592505050565b6000806106508888888861092c565b905060008160001c905061069b888387878080601f0160208091040260200160405190810160405280939291908181526020018383808284376000920191909152506109bb92505050565b6106f65760405162461bcd60e51b815260206004820152602660248201527f5f73616665436865636b41677265656d656e743a20696e76616c6964207369676044820152656e617475726560d01b606482015260840161028f565b600881901c600090815260208190526040902054600160ff83161b16156107695760405162461bcd60e51b815260206004820152602160248201527f5f73616665436865636b41677265656d656e743a20616c7265616479207573656044820152601960fa1b606482015260840161028f565b98975050505050505050565b6000828152600360205260408120546001600160a01b0316156107d15760405162461bcd60e51b81526020600482015260146024820152736d696e743a20746f6b656e49442065786973747360601b604482015260640161028f565b6001600160a01b03841660009081526005602052604081208054600192906107fa908490610ffe565b9091555050600083815260036020908152604080832080546001600160a01b0319166001600160a01b0389161790556004909152902061083a838261107b565b5082846001600160a01b0316866001600160a01b03167fddf252ad1be2c89b69c2b068fc378daa952ba7f163c4a11628f55a4df523b3ef60405160405180910390a450909392505050565b6000818152600360209081526040808320546001600160a01b031680845260059092528220805491926001926108bc90849061113b565b9091555050600082815260036020908152604080832080546001600160a01b0319169055600490915281206108f091610d7d565b60405182906000906001600160a01b038416907fddf252ad1be2c89b69c2b068fc378daa952ba7f163c4a11628f55a4df523b3ef908390a45050565b6000807f38ac93f557dfa4d4c420a2430beea64a75bff9d32b37164a4d84da4852d5806d86868686604051610962929190611152565b60405190819003812061099a949392916020019384526001600160a01b03928316602085015291166040830152606082015260800190565b60405160208183030381529060405280519060200120905061041f81610aff565b60008060006109ca8585610b4d565b909250905060008160048111156109e3576109e3611162565b148015610a015750856001600160a01b0316826001600160a01b0316145b15610a1157600192505050610af8565b600080876001600160a01b0316631626ba7e60e01b8888604051602401610a39929190611178565b60408051601f198184030181529181526020820180516001600160e01b03166001600160e01b0319909416939093179092529051610a779190611199565b600060405180830381855afa9150503d8060008114610ab2576040519150601f19603f3d011682016040523d82523d6000602084013e610ab7565b606091505b5091509150818015610aca575080516020145b8015610af157508051630b135d3f60e11b90610aef90830160209081019084016111b5565b145b9450505050505b9392505050565b60006101c3610b0c610b92565b8360405161190160f01b6020820152602281018390526042810182905260009060620160405160208183030381529060405280519060200120905092915050565b6000808251604103610b835760208301516040840151606085015160001a610b7787828585610cb9565b94509450505050610b8b565b506000905060025b9250929050565b6000306001600160a01b037f000000000000000000000000000000000000000000000000000000000000000016148015610beb57507f000000000000000000000000000000000000000000000000000000000000000046145b15610c1557507f000000000000000000000000000000000000000000000000000000000000000090565b50604080517f00000000000000000000000000000000000000000000000000000000000000006020808301919091527f0000000000000000000000000000000000000000000000000000000000000000828401527f000000000000000000000000000000000000000000000000000000000000000060608301524660808301523060a0808401919091528351808403909101815260c0909201909252805191012090565b6000807f7fffffffffffffffffffffffffffffff5d576e7357a4501ddfe92f46681b20a0831115610cf05750600090506003610d74565b6040805160008082526020820180845289905260ff881692820192909252606081018690526080810185905260019060a0016020604051602081039080840390855afa158015610d44573d6000803e3d6000fd5b5050604051601f1901519150506001600160a01b038116610d6d57600060019250925050610d74565b9150600090505b94509492505050565b508054610d8990610f77565b6000825580601f10610d99575050565b601f01602090049060005260206000209081019061059091905b80821115610dc75760008155600101610db3565b5090565b600060208284031215610ddd57600080fd5b81356001600160e01b031981168114610af857600080fd5b60005b83811015610e10578181015183820152602001610df8565b83811115610e1f576000848401525b50505050565b60008151808452610e3d816020860160208601610df5565b601f01601f19169290920160200192915050565b602081526000610af86020830184610e25565b600060208284031215610e7657600080fd5b5035919050565b80356001600160a01b0381168114610e9457600080fd5b919050565b600060208284031215610eab57600080fd5b610af882610e7d565b60008083601f840112610ec657600080fd5b50813567ffffffffffffffff811115610ede57600080fd5b602083019150836020828501011115610b8b57600080fd5b600080600080600060608688031215610f0e57600080fd5b610f1786610e7d565b9450602086013567ffffffffffffffff80821115610f3457600080fd5b610f4089838a01610eb4565b90965094506040880135915080821115610f5957600080fd5b50610f6688828901610eb4565b969995985093965092949392505050565b600181811c90821680610f8b57607f821691505b602082108103610fab57634e487b7160e01b600052602260045260246000fd5b50919050565b6020808252601d908201527f746f6b656e5552493a20746f6b656e20646f65736e2774206578697374000000604082015260600190565b634e487b7160e01b600052601160045260246000fd5b6000821982111561101157611011610fe8565b500190565b634e487b7160e01b600052604160045260246000fd5b601f82111561107657600081815260208120601f850160051c810160208610156110535750805b601f850160051c820191505b818110156110725782815560010161105f565b5050505b505050565b815167ffffffffffffffff81111561109557611095611016565b6110a9816110a38454610f77565b8461102c565b602080601f8311600181146110de57600084156110c65750858301515b600019600386901b1c1916600185901b178555611072565b600085815260208120601f198616915b8281101561110d578886015182559484019460019091019084016110ee565b508582101561112b5787850151600019600388901b60f8161c191681555b5050505050600190811b01905550565b60008282101561114d5761114d610fe8565b500390565b8183823760009101908152919050565b634e487b7160e01b600052602160045260246000fd5b8281526040602082015260006111916040830184610e25565b949350505050565b600082516111ab818460208701610df5565b9190910192915050565b6000602082840312156111c757600080fd5b505191905056fea2646970667358221220ba975a2c7a959a708668bdfc339cb65d8f63af1c81390089c44bc7333c58f38864736f6c634300080f0033",
    "linkReferences": {}
  },
  "methodIdentifiers": {
    "balanceOf(address)": "70a08231",
    "give(address,string,bytes)": "ec64948e",
    "name()": "06fdde03",
    "ownerOf(uint256)": "6352211e",
    "supportsInterface(bytes4)": "01ffc9a7",
    "symbol()": "95d89b41",
    "take(address,string,bytes)": "a3947803",
    "tokenURI(uint256)": "c87b56dd",
    "unequip(uint256)": "d179e3d0"
  },
  "id": 29
}